:04000000E7EF04F032
:08000800046ED8CF05F0E0CF33
:1000100006F00001E9CF0CF0EACF07F0E1CF08F0DD
:10002000E2CF09F0D9CF0AF0DACF0BF0F3CF12F01C
:10003000F4CF13F0FACF14F0F5CF15F0F6CF16F099
:10004000F7CF17F000C00EF001C00FF002C010F0A3
:1000500003C011F09DAA30EF00F09EBA86EF01F0C8
:100060000EC000F00FC001F010C002F011C003F08C
:100070000CC0E9FF07C0EAFF078E08C0E1FF09C016
:10008000E2FF0AC0D9FF0BC0DAFF12C0F3FF13C0B2
:10009000F4FF14C0FAFF15C0F5FF16C0F6FF17C035
:1000A000F7FF045006C0E0FF05C0D8FF10000A0D9E
:1000B000636F756E74203D20257800000A0D414461
:1000C00044524553203D202578000A0D496E69743D
:1000D0000A0D313A257800000A0D2053534431337C
:1000E00030365F444953504C41595F4F46462020BB
:1000F0003A2578000A0D20535344313330365F538C
:1001000045545F444953504C41595F434C4F434B16
:100110005F44495620203A2578000A0D2053534465
:10012000313330365F5345545F4D554C5449504C34
:10013000455820203A2578000A0D20535344313386
:1001400030365F5345545F444953504C41595F4FDB
:10015000464653455420203A257800000A0D205386
:100160005344313330365F5345545F5354415254F6
:100170005F4C494E4520203A257800000A0D205357
:100180005344313330365F4348415247455F505501
:100190004D5020203A2578000A0D20535344313326
:1001A00030365F4D454D4F52595F4D4F44452020ED
:1001B0003A2578000A0D20535344313330365F53CB
:1001C00045475F52454D415020203A2578000A0DA1
:1001D00020535344313330365F434F4D5F534341D7
:1001E0004E5F44454320203A257800000A0D2053F5
:1001F0005344313330365F5345545F434F4D50497C
:100200004E5320203A2578000A0D205353443133B1
:1002100030365F5345545F434F4E54524153542040
:10022000203A257800000A0D2053534431333036EC
:100230005F5345545F505245434841524745202043
:100240003A2578000A0D20535344313330365F533A
:1002500045545F56434F4D5F444554454354202019
:100260003A2578000A0D20535344313330365F4429
:100270004953504C41595F414C4C5F4F4E5F524582
:1002800053554D4520203A2578000A0D20535344FC
:10029000313330365F444953504C41595F4E4F52D1
:1002A0004D414C20203A257800000A0D205353443C
:1002B000313330365F444953504C41595F4F4E20E3
:1002C000203A257800000A0D496E69740A0D313A0A
:1002D000257800000A0D323A257800000A0D333ADD
:1002E00025780000EF5210E0EACF58F0E9CF57F040
:1002F000EF509EA8FED7AE6E58C0EAFF57C0E9FF88
:10030000E92AD8B4EA2AEED7CAEF01F09EAAFED7AE
:10031000AFCF56F02E50FC0F41E2040FD1EF01F0A9
:1003200056500D0803E1010E2E6E01D02E6A36D014
:1003300056500A0804E1020E2E6E2F6A01D02E6A72
:100340002DD056500D0803E1030E2E6E0AD0036A1D
:100350002F501A0FE96E000E0320EA6E56C0EFFF11
:100360002F2A1CD056500A0818E1036A2F501A0F82
:10037000E96E000E0320EA6EEF6A2E6A0A0E9EA84E
:10038000FED7AE6E0D0E9EA8FED7AE6EEA6A1A0EAE
:10039000E96EA8D7010E306E01D02E6A9E9A30EF1A
:1003A00000F0E824F76AF736BD0FF66E030EF72269
:1003B0000A00F550FA6E0800F550F96E200330037C
:1003C000420364030A0D70726F6261207A612069D2
:1003D0006E69740A0D000A0D4166746572205365DA
:1003E00074436C6F636B0A0D0000EA6A440EE96E99
:1003F000EF5010E00F0E016EBF0E006E0400002ED5
:10040000FDD7012EF9D78F0E006E002EFED7040007
:10041000EF2EF0D712000900F5520DE0F6CF43F0B1
:10042000F7CF44F0F5509EA8FED7AE6E43C0F6FF5E
:1004300044C0F7FFF0D71200C69E9E9653C0C9FF76
:10044000020EC6BE05D09EA6FED7000EC5BC010E8C
:10045000016E1200C69CC586C5B6FED700B0C59A0F
:1004600000A0C58AC588C5B8FED7C9CF01F0120063
:10047000010E4F6EC580C5B0FED7D00E536EDCDFC7
:1004800001C050F04BC053F0D7DF01C051F0D890FD
:100490005136C582C5B2FED7D10E536ECDDF01C035
:1004A00052F052365236FC0E5216010E4F6E4E501E
:1004B0004F5C0EE2010E4F5C4C24E96E000E4D20A5
:1004C000EA6E010E006EC6DF01C0EFFF4F2AEFD7C4
:1004D000010E4E5C4C24E96E000E4D20EA6E006A5F
:1004E000B9DF01C0EFFFC584C5B4FED7505051102D
:1004F0005210016E12004B6A4D6A470E4C6E030E8D
:100500004E6EB6DF45C0E9FF46C0EAFF47500F0B0D
:10051000EF6E010E4524E96E000E4620EA6E47504C
:10052000700B006E003A0F0E001600C0EFFF020EB7
:100530004524E96E000E4620EA6E48500F0BEF6E20
:10054000030E4524E96E000E4620EA6E4850700BFB
:10055000006E003A0F0E001600C0EFFF040E452497
:10056000E96E000E4620EA6E49500F0BEF6E050E45
:100570004524E96E000E4620EA6E4950300B006EAD
:10058000003A0F0E001600C0EFFF39EF03F0525093
:10059000016A515C03E251C000F00CD0006A080E01
:1005A000536E513600365250005CD8B0006E0136A2
:1005B000532EF7D71200200E4CA8300E4D6E4BC0B4
:1005C00000F04BAE08D0001E002A00C04BF02D0EEC
:1005D0004D6E4C8E4C8001504BC051F0640E526EEB
:1005E000D6DF00C04BF0300E01244E6E4BC051F0F0
:1005F0000A0E526ECCDF300E0024506E300E0124F5
:100600004F6E4DC000F0300E4E5C04E04C824CBE8C
:100610004C8412D04DC04EF0200E4D6E300E4F5C0B
:1006200004E04C804CBE4C8207D0D8A44C8004E13E
:100630004EC04FF0200E4E6E4CB405D04CB207D0D9
:100640004CB009D00CD04D509EA8FED7AE6E4E5087
:100650009EA8FED7AE6E4F509EA8FED7AE6E5050ED
:100660009EA8FED7AE6E120044C046F043C045F0CF
:1006700042D7050E4324E96E000E4420EA6EEFCF08
:1006800045F0040E4324E96E000E4420EA6EEFCFDD
:1006900046F0030E4324E96E000E4420EA6EEFCFCD
:1006A00047F0020E4324E96E000E4420EA6EEFCFBD
:1006B00048F0010E4324E96E000E4420EA6EEFCFAD
:1006C00049F043C0E9FF44C0EAFFEFCF4AF00A0E09
:1006D0009EA8FED7AE6E0D0E9EA8FED7AE6E45C08C
:1006E0004BF0180E4C6E67DF46C04BF0180E4C6E88
:1006F00062DF3A0E9EA8FED7AE6E47C04BF0180ED2
:100700004C6E59DF48C04BF0180E4C6E54DF3A0E59
:100710009EA8FED7AE6E49C04BF0180E4C6E4BDF54
:100720004AC04BF0180E4C6E46DF44EF05F0030E46
:100730004B6E4D6A470E4C6E040E4E6E99DE45C0F0
:10074000E9FF46C0EAFF4850070BEF6E010E452453
:10075000E96E000E4620EA6E48500F0BEF6E020E57
:100760004524E96E000E4620EA6E4850300B006EBC
:10077000003A0F0E001600C0EFFF030E4524E96E8D
:10078000000E4620EA6E49500F0BEF6E040E452412
:10079000E96E000E4620EA6E4950100B006E003ADA
:1007A0000F0E001600C0EFFF050E4524E96E000E87
:1007B0004620EA6E4A500F0BEF6E060E4524E96E96
:1007C000000E4620EA6E4A50F00B006E003A0F0E03
:1007D000001600C0EFFFF2EF03F044C046F043C044
:1007E00045F0A5D7020E4324E96E000E4420EA6EC0
:1007F000EFCF45F0010E4324E96E000E4420EA6E6F
:10080000EFCF46F0040E4324E96E000E4420EA6E5A
:10081000EFCF47F0030E4324E96E000E4420EA6E4A
:10082000EFCF48F0060E4324E96E000E4420EA6E36
:10083000EFCF49F0050E4324E96E000E4420EA6E26
:10084000EFCF4AF00A0E9EA8FED7AE6E0D0E9EA800
:10085000FED7AE6E45C04BF0180E4C6EACDE46C0F7
:100860004BF0180E4C6EA7DE5C0E9EA8FED7AE6E47
:1008700047C04BF0180E4C6E9EDE48C04BF0180E71
:100880004C6E99DE5C0E9EA8FED7AE6E49C04BF052
:10089000180E4C6E90DE4AC04BF0180E4C6E8BDE7C
:1008A000200E9EA8FED7AE6E200E9EA8FED7AE6E7E
:1008B00043C0E9FF44C0EAFF010EEF5CF90F41E2DB
:1008C000070FA3EF04F04D0E9EA8FED7AE6E6F0E7D
:1008D0009EA8FED7AE6E35D0540E9EA8FED7AE6E43
:1008E000750E9EA8FED7AE6E2CD0570E9EA8FED7D2
:1008F000AE6E650E9EA8FED7AE6E23D0540E9EA897
:10090000FED7AE6E680E9EA8FED7AE6E1AD0460E0B
:100910009EA8FED7AE6E720E9EA8FED7AE6E11D008
:10092000530E9EA8FED7AE6E610E9EA8FED7AE6E89
:1009300008D0530E9EA8FED7AE6E750E9EA8FED7A9
:10094000AE6E48EF05F0E824F76AF736610FF66EF1
:10095000090EF7220A00F550FA6E0800F550F96EFC
:10096000C608D808EA08FC080E09200932094350D5
:10097000E96E44C0EAFF21C0EFFF010E4324E96E97
:10098000000E4420EA6E20C0EFFF020E4324E96E01
:10099000000E4420EA6E1EC0EFFF030E4324E96EF2
:1009A000000E4420EA6E1DC0EFFF040E4324E96EE2
:1009B000000E4420EA6E1BC0EFFF050E4324E96ED3
:1009C000000E4420EA6E1AC0EFFF4EEF05F0F86A01
:1009D000D09E078E7E96190EB06EA60EAD6E900E4E
:1009E000AC6E9388938A1D0EC86E280EC66EC79E85
:1009F000C79C2E6A2F6A306AFF0E0F01486FC29C97
:100A0000C29E4951E00B1F09496FD26AD16A1A6A26
:100A10001B6A1C6A1D6A1E6A1F6A206A216A226A92
:100A2000236A246A256A266A276A286A296A2A6A42
:100A30002B6A2C6A2D6A416A426AD3A6FED79B8C28
:100A4000FA0E446E0001D1DC9D8AA38AC00EF21218
:100A5000C40EF66E030EF76EDEDC416A41500F08DD
:100A60000AE3036A4150310FE96E000E0320EA6E7B
:100A7000EF6A412AF3D7D60EF66E030EF76ECBDC83
:100A8000446A310E436EF0D5446A310E436EA5D6EA
:100A9000302C05D0446A310E436E69D7306A040E9B
:100AA000436EFA0E446EA1DC432EFBD7E9D7030058
:087FF800ACF71AF7FFF8DFF106
:00000001FF
;PIC18F25J50
;CRC=C684  CREATED="06-Apr-15 20:59"
